{
  "_format": "hh-sol-artifact-1",
  "contractName": "RandomFans",
  "sourceName": "contracts/RandomFans.sol",
  "abi": [
    {
      "inputs": [],
      "stateMutability": "nonpayable",
      "type": "constructor"
    },
    {
      "anonymous": false,
      "inputs": [
        {
          "indexed": true,
          "internalType": "address",
          "name": "owner",
          "type": "address"
        },
        {
          "indexed": true,
          "internalType": "address",
          "name": "approved",
          "type": "address"
        },
        {
          "indexed": true,
          "internalType": "uint256",
          "name": "tokenId",
          "type": "uint256"
        }
      ],
      "name": "Approval",
      "type": "event"
    },
    {
      "anonymous": false,
      "inputs": [
        {
          "indexed": true,
          "internalType": "address",
          "name": "owner",
          "type": "address"
        },
        {
          "indexed": true,
          "internalType": "address",
          "name": "operator",
          "type": "address"
        },
        {
          "indexed": false,
          "internalType": "bool",
          "name": "approved",
          "type": "bool"
        }
      ],
      "name": "ApprovalForAll",
      "type": "event"
    },
    {
      "anonymous": false,
      "inputs": [
        {
          "indexed": false,
          "internalType": "uint256",
          "name": "tokenId",
          "type": "uint256"
        },
        {
          "indexed": false,
          "internalType": "address",
          "name": "owner",
          "type": "address"
        }
      ],
      "name": "FansMinted",
      "type": "event"
    },
    {
      "anonymous": false,
      "inputs": [
        {
          "indexed": true,
          "internalType": "address",
          "name": "previousOwner",
          "type": "address"
        },
        {
          "indexed": true,
          "internalType": "address",
          "name": "newOwner",
          "type": "address"
        }
      ],
      "name": "OwnershipTransferred",
      "type": "event"
    },
    {
      "anonymous": false,
      "inputs": [
        {
          "indexed": true,
          "internalType": "address",
          "name": "from",
          "type": "address"
        },
        {
          "indexed": true,
          "internalType": "address",
          "name": "to",
          "type": "address"
        },
        {
          "indexed": true,
          "internalType": "uint256",
          "name": "tokenId",
          "type": "uint256"
        }
      ],
      "name": "Transfer",
      "type": "event"
    },
    {
      "inputs": [],
      "name": "MAX_TOKENS",
      "outputs": [
        {
          "internalType": "uint256",
          "name": "",
          "type": "uint256"
        }
      ],
      "stateMutability": "view",
      "type": "function"
    },
    {
      "inputs": [
        {
          "internalType": "address",
          "name": "to",
          "type": "address"
        },
        {
          "internalType": "uint256",
          "name": "tokenId",
          "type": "uint256"
        }
      ],
      "name": "approve",
      "outputs": [],
      "stateMutability": "nonpayable",
      "type": "function"
    },
    {
      "inputs": [
        {
          "internalType": "address",
          "name": "owner",
          "type": "address"
        }
      ],
      "name": "balanceOf",
      "outputs": [
        {
          "internalType": "uint256",
          "name": "",
          "type": "uint256"
        }
      ],
      "stateMutability": "view",
      "type": "function"
    },
    {
      "inputs": [],
      "name": "baseURI",
      "outputs": [
        {
          "internalType": "string",
          "name": "",
          "type": "string"
        }
      ],
      "stateMutability": "view",
      "type": "function"
    },
    {
      "inputs": [],
      "name": "devReserve",
      "outputs": [
        {
          "internalType": "uint256",
          "name": "",
          "type": "uint256"
        }
      ],
      "stateMutability": "view",
      "type": "function"
    },
    {
      "inputs": [
        {
          "internalType": "uint256",
          "name": "tokenId",
          "type": "uint256"
        }
      ],
      "name": "getApproved",
      "outputs": [
        {
          "internalType": "address",
          "name": "",
          "type": "address"
        }
      ],
      "stateMutability": "view",
      "type": "function"
    },
    {
      "inputs": [
        {
          "internalType": "address",
          "name": "owner",
          "type": "address"
        },
        {
          "internalType": "address",
          "name": "operator",
          "type": "address"
        }
      ],
      "name": "isApprovedForAll",
      "outputs": [
        {
          "internalType": "bool",
          "name": "",
          "type": "bool"
        }
      ],
      "stateMutability": "view",
      "type": "function"
    },
    {
      "inputs": [],
      "name": "isRevealed",
      "outputs": [
        {
          "internalType": "bool",
          "name": "",
          "type": "bool"
        }
      ],
      "stateMutability": "view",
      "type": "function"
    },
    {
      "inputs": [],
      "name": "maxTokenPurchase",
      "outputs": [
        {
          "internalType": "uint256",
          "name": "",
          "type": "uint256"
        }
      ],
      "stateMutability": "view",
      "type": "function"
    },
    {
      "inputs": [
        {
          "internalType": "uint256",
          "name": "numberOfTokens",
          "type": "uint256"
        }
      ],
      "name": "mintFans",
      "outputs": [],
      "stateMutability": "payable",
      "type": "function"
    },
    {
      "inputs": [],
      "name": "name",
      "outputs": [
        {
          "internalType": "string",
          "name": "",
          "type": "string"
        }
      ],
      "stateMutability": "view",
      "type": "function"
    },
    {
      "inputs": [],
      "name": "owner",
      "outputs": [
        {
          "internalType": "address",
          "name": "",
          "type": "address"
        }
      ],
      "stateMutability": "view",
      "type": "function"
    },
    {
      "inputs": [
        {
          "internalType": "uint256",
          "name": "tokenId",
          "type": "uint256"
        }
      ],
      "name": "ownerOf",
      "outputs": [
        {
          "internalType": "address",
          "name": "",
          "type": "address"
        }
      ],
      "stateMutability": "view",
      "type": "function"
    },
    {
      "inputs": [],
      "name": "renounceOwnership",
      "outputs": [],
      "stateMutability": "nonpayable",
      "type": "function"
    },
    {
      "inputs": [
        {
          "internalType": "address",
          "name": "_to",
          "type": "address"
        },
        {
          "internalType": "uint256",
          "name": "_reserveAmount",
          "type": "uint256"
        }
      ],
      "name": "reserveTokens",
      "outputs": [],
      "stateMutability": "nonpayable",
      "type": "function"
    },
    {
      "inputs": [],
      "name": "reveal",
      "outputs": [],
      "stateMutability": "nonpayable",
      "type": "function"
    },
    {
      "inputs": [
        {
          "internalType": "address",
          "name": "from",
          "type": "address"
        },
        {
          "internalType": "address",
          "name": "to",
          "type": "address"
        },
        {
          "internalType": "uint256",
          "name": "tokenId",
          "type": "uint256"
        }
      ],
      "name": "safeTransferFrom",
      "outputs": [],
      "stateMutability": "nonpayable",
      "type": "function"
    },
    {
      "inputs": [
        {
          "internalType": "address",
          "name": "from",
          "type": "address"
        },
        {
          "internalType": "address",
          "name": "to",
          "type": "address"
        },
        {
          "internalType": "uint256",
          "name": "tokenId",
          "type": "uint256"
        },
        {
          "internalType": "bytes",
          "name": "_data",
          "type": "bytes"
        }
      ],
      "name": "safeTransferFrom",
      "outputs": [],
      "stateMutability": "nonpayable",
      "type": "function"
    },
    {
      "inputs": [],
      "name": "saleIsActive",
      "outputs": [
        {
          "internalType": "bool",
          "name": "",
          "type": "bool"
        }
      ],
      "stateMutability": "view",
      "type": "function"
    },
    {
      "inputs": [
        {
          "internalType": "address",
          "name": "operator",
          "type": "address"
        },
        {
          "internalType": "bool",
          "name": "approved",
          "type": "bool"
        }
      ],
      "name": "setApprovalForAll",
      "outputs": [],
      "stateMutability": "nonpayable",
      "type": "function"
    },
    {
      "inputs": [
        {
          "internalType": "string",
          "name": "_newBaseURI",
          "type": "string"
        }
      ],
      "name": "setBaseURI",
      "outputs": [],
      "stateMutability": "nonpayable",
      "type": "function"
    },
    {
      "inputs": [
        {
          "internalType": "bytes4",
          "name": "interfaceId",
          "type": "bytes4"
        }
      ],
      "name": "supportsInterface",
      "outputs": [
        {
          "internalType": "bool",
          "name": "",
          "type": "bool"
        }
      ],
      "stateMutability": "view",
      "type": "function"
    },
    {
      "inputs": [],
      "name": "symbol",
      "outputs": [
        {
          "internalType": "string",
          "name": "",
          "type": "string"
        }
      ],
      "stateMutability": "view",
      "type": "function"
    },
    {
      "inputs": [],
      "name": "toggleSaleState",
      "outputs": [],
      "stateMutability": "nonpayable",
      "type": "function"
    },
    {
      "inputs": [
        {
          "internalType": "uint256",
          "name": "index",
          "type": "uint256"
        }
      ],
      "name": "tokenByIndex",
      "outputs": [
        {
          "internalType": "uint256",
          "name": "",
          "type": "uint256"
        }
      ],
      "stateMutability": "view",
      "type": "function"
    },
    {
      "inputs": [
        {
          "internalType": "address",
          "name": "owner",
          "type": "address"
        },
        {
          "internalType": "uint256",
          "name": "index",
          "type": "uint256"
        }
      ],
      "name": "tokenOfOwnerByIndex",
      "outputs": [
        {
          "internalType": "uint256",
          "name": "",
          "type": "uint256"
        }
      ],
      "stateMutability": "view",
      "type": "function"
    },
    {
      "inputs": [],
      "name": "tokenPrice",
      "outputs": [
        {
          "internalType": "uint256",
          "name": "",
          "type": "uint256"
        }
      ],
      "stateMutability": "view",
      "type": "function"
    },
    {
      "inputs": [
        {
          "internalType": "uint256",
          "name": "tokenId",
          "type": "uint256"
        }
      ],
      "name": "tokenURI",
      "outputs": [
        {
          "internalType": "string",
          "name": "",
          "type": "string"
        }
      ],
      "stateMutability": "view",
      "type": "function"
    },
    {
      "inputs": [
        {
          "internalType": "address",
          "name": "_owner",
          "type": "address"
        }
      ],
      "name": "tokensOfOwner",
      "outputs": [
        {
          "internalType": "uint256[]",
          "name": "",
          "type": "uint256[]"
        }
      ],
      "stateMutability": "view",
      "type": "function"
    },
    {
      "inputs": [],
      "name": "totalSupply",
      "outputs": [
        {
          "internalType": "uint256",
          "name": "",
          "type": "uint256"
        }
      ],
      "stateMutability": "view",
      "type": "function"
    },
    {
      "inputs": [
        {
          "internalType": "address",
          "name": "from",
          "type": "address"
        },
        {
          "internalType": "address",
          "name": "to",
          "type": "address"
        },
        {
          "internalType": "uint256",
          "name": "tokenId",
          "type": "uint256"
        }
      ],
      "name": "transferFrom",
      "outputs": [],
      "stateMutability": "nonpayable",
      "type": "function"
    },
    {
      "inputs": [
        {
          "internalType": "address",
          "name": "newOwner",
          "type": "address"
        }
      ],
      "name": "transferOwnership",
      "outputs": [],
      "stateMutability": "nonpayable",
      "type": "function"
    },
    {
      "inputs": [],
      "name": "withdraw",
      "outputs": [],
      "stateMutability": "payable",
      "type": "function"
    }
  ],
  "bytecode": "0x60806040526040518060800160405280604481526020016200496060449139600b90805190602001906200003592919062000213565b506001600c60006101000a81548160ff0219169083151502179055506001600c60016101000a81548160ff0219169083151502179055506002600d553480156200007e57600080fd5b506040518060400160405280600a81526020017f52616e646f6d46616e73000000000000000000000000000000000000000000008152506040518060400160405280600381526020017f524653000000000000000000000000000000000000000000000000000000000081525081600090805190602001906200010392919062000213565b5080600190805190602001906200011c92919062000213565b5050506200013f620001336200014560201b60201c565b6200014d60201b60201c565b62000328565b600033905090565b6000600660009054906101000a900473ffffffffffffffffffffffffffffffffffffffff16905081600660006101000a81548173ffffffffffffffffffffffffffffffffffffffff021916908373ffffffffffffffffffffffffffffffffffffffff1602179055508173ffffffffffffffffffffffffffffffffffffffff168173ffffffffffffffffffffffffffffffffffffffff167f8be0079c531659141344cd1fd0a4f28419497f9722a3daafe3b4186f6b6457e060405160405180910390a35050565b8280546200022190620002c3565b90600052602060002090601f01602090048101928262000245576000855562000291565b82601f106200026057805160ff191683800117855562000291565b8280016001018555821562000291579182015b828111156200029057825182559160200191906001019062000273565b5b509050620002a09190620002a4565b5090565b5b80821115620002bf576000816000905550600101620002a5565b5090565b60006002820490506001821680620002dc57607f821691505b60208210811415620002f357620002f2620002f9565b5b50919050565b7f4e487b7100000000000000000000000000000000000000000000000000000000600052602260045260246000fd5b61462880620003386000396000f3fe6080604052600436106101ee5760003560e01c8063715018a61161010d578063a475b5dd116100a0578063e985e9c51161006f578063e985e9c5146106bd578063eb8d2444146106fa578063f2fde38b14610725578063f47c84c51461074e578063fcd2a42714610779576101ee565b8063a475b5dd14610629578063b88d4fde14610640578063c87b56dd14610669578063daaeec86146106a6576101ee565b80638da5cb5b116100dc5780638da5cb5b1461058e5780638e7e72f1146105b957806395d89b41146105d5578063a22cb46514610600576101ee565b8063715018a6146104e657806378cf19e9146104fd5780637ff9b596146105265780638462151c14610551576101ee565b80633ccfd60b1161018557806355f804b31161015457806355f804b3146104185780636352211e146104415780636c0360eb1461047e57806370a08231146104a9576101ee565b80633ccfd60b1461037d57806342842e0e146103875780634f6ccce7146103b057806354214f69146103ed576101ee565b806309aa3dcf116101c157806309aa3dcf146102c157806318160ddd146102ec57806323b872dd146103175780632f745c5914610340576101ee565b806301ffc9a7146101f357806306fdde0314610230578063081812fc1461025b578063095ea7b314610298575b600080fd5b3480156101ff57600080fd5b5061021a600480360381019061021591906130c7565b6107a4565b6040516102279190613710565b60405180910390f35b34801561023c57600080fd5b506102456107b6565b604051610252919061372b565b60405180910390f35b34801561026757600080fd5b50610282600480360381019061027d919061315a565b610848565b60405161028f9190613687565b60405180910390f35b3480156102a457600080fd5b506102bf60048036038101906102ba919061308b565b6108cd565b005b3480156102cd57600080fd5b506102d66109e5565b6040516102e39190613a2d565b60405180910390f35b3480156102f857600080fd5b506103016109ea565b60405161030e9190613a2d565b60405180910390f35b34801561032357600080fd5b5061033e60048036038101906103399190612f85565b6109f7565b005b34801561034c57600080fd5b506103676004803603810190610362919061308b565b610a57565b6040516103749190613a2d565b60405180910390f35b610385610afc565b005b34801561039357600080fd5b506103ae60048036038101906103a99190612f85565b610bf8565b005b3480156103bc57600080fd5b506103d760048036038101906103d2919061315a565b610c18565b6040516103e49190613a2d565b60405180910390f35b3480156103f957600080fd5b50610402610caf565b60405161040f9190613710565b60405180910390f35b34801561042457600080fd5b5061043f600480360381019061043a9190613119565b610cc2565b005b34801561044d57600080fd5b506104686004803603810190610463919061315a565b610d58565b6040516104759190613687565b60405180910390f35b34801561048a57600080fd5b50610493610e0a565b6040516104a0919061372b565b60405180910390f35b3480156104b557600080fd5b506104d060048036038101906104cb9190612f20565b610e98565b6040516104dd9190613a2d565b60405180910390f35b3480156104f257600080fd5b506104fb610f50565b005b34801561050957600080fd5b50610524600480360381019061051f919061308b565b610fd8565b005b34801561053257600080fd5b5061053b6110fa565b6040516105489190613a2d565b60405180910390f35b34801561055d57600080fd5b5061057860048036038101906105739190612f20565b611106565b60405161058591906136ee565b60405180910390f35b34801561059a57600080fd5b506105a3611282565b6040516105b09190613687565b60405180910390f35b6105d360048036038101906105ce919061315a565b6112ac565b005b3480156105e157600080fd5b506105ea61149b565b6040516105f7919061372b565b60405180910390f35b34801561060c57600080fd5b506106276004803603810190610622919061304f565b61152d565b005b34801561063557600080fd5b5061063e611543565b005b34801561064c57600080fd5b5061066760048036038101906106629190612fd4565b6115dc565b005b34801561067557600080fd5b50610690600480360381019061068b919061315a565b61163e565b60405161069d919061372b565b60405180910390f35b3480156106b257600080fd5b506106bb611723565b005b3480156106c957600080fd5b506106e460048036038101906106df9190612f49565b6117cb565b6040516106f19190613710565b60405180910390f35b34801561070657600080fd5b5061070f61185f565b60405161071c9190613710565b60405180910390f35b34801561073157600080fd5b5061074c60048036038101906107479190612f20565b611872565b005b34801561075a57600080fd5b5061076361196a565b6040516107709190613a2d565b60405180910390f35b34801561078557600080fd5b5061078e61196f565b60405161079b9190613a2d565b60405180910390f35b60006107af82611975565b9050919050565b6060600080546107c590613d4a565b80601f01602080910402602001604051908101604052809291908181526020018280546107f190613d4a565b801561083e5780601f106108135761010080835404028352916020019161083e565b820191906000526020600020905b81548152906001019060200180831161082157829003601f168201915b5050505050905090565b6000610853826119ef565b610892576040517f08c379a00000000000000000000000000000000000000000000000000000000081526004016108899061394d565b60405180910390fd5b6004600083815260200190815260200160002060009054906101000a900473ffffffffffffffffffffffffffffffffffffffff169050919050565b60006108d882610d58565b90508073ffffffffffffffffffffffffffffffffffffffff168373ffffffffffffffffffffffffffffffffffffffff161415610949576040517f08c379a0000000000000000000000000000000000000000000000000000000008152600401610940906139cd565b60405180910390fd5b8073ffffffffffffffffffffffffffffffffffffffff16610968611a5b565b73ffffffffffffffffffffffffffffffffffffffff161480610997575061099681610991611a5b565b6117cb565b5b6109d6576040517f08c379a00000000000000000000000000000000000000000000000000000000081526004016109cd906138ad565b60405180910390fd5b6109e08383611a63565b505050565b600581565b6000600980549050905090565b610a08610a02611a5b565b82611b1c565b610a47576040517f08c379a0000000000000000000000000000000000000000000000000000000008152600401610a3e906139ed565b60405180910390fd5b610a52838383611bfa565b505050565b6000610a6283610e98565b8210610aa3576040517f08c379a0000000000000000000000000000000000000000000000000000000008152600401610a9a9061376d565b60405180910390fd5b600760008473ffffffffffffffffffffffffffffffffffffffff1673ffffffffffffffffffffffffffffffffffffffff168152602001908152602001600020600083815260200190815260200160002054905092915050565b610b04611a5b565b73ffffffffffffffffffffffffffffffffffffffff16610b22611282565b73ffffffffffffffffffffffffffffffffffffffff1614610b78576040517f08c379a0000000000000000000000000000000000000000000000000000000008152600401610b6f9061396d565b60405180910390fd5b6000610b82611282565b73ffffffffffffffffffffffffffffffffffffffff1647604051610ba590613672565b60006040518083038185875af1925050503d8060008114610be2576040519150601f19603f3d011682016040523d82523d6000602084013e610be7565b606091505b5050905080610bf557600080fd5b50565b610c13838383604051806020016040528060008152506115dc565b505050565b6000610c226109ea565b8210610c63576040517f08c379a0000000000000000000000000000000000000000000000000000000008152600401610c5a90613a0d565b60405180910390fd5b60098281548110610c9d577f4e487b7100000000000000000000000000000000000000000000000000000000600052603260045260246000fd5b90600052602060002001549050919050565b600c60019054906101000a900460ff1681565b610cca611a5b565b73ffffffffffffffffffffffffffffffffffffffff16610ce8611282565b73ffffffffffffffffffffffffffffffffffffffff1614610d3e576040517f08c379a0000000000000000000000000000000000000000000000000000000008152600401610d359061396d565b60405180910390fd5b80600b9080519060200190610d54929190612d44565b5050565b6000806002600084815260200190815260200160002060009054906101000a900473ffffffffffffffffffffffffffffffffffffffff169050600073ffffffffffffffffffffffffffffffffffffffff168173ffffffffffffffffffffffffffffffffffffffff161415610e01576040517f08c379a0000000000000000000000000000000000000000000000000000000008152600401610df8906138ed565b60405180910390fd5b80915050919050565b600b8054610e1790613d4a565b80601f0160208091040260200160405190810160405280929190818152602001828054610e4390613d4a565b8015610e905780601f10610e6557610100808354040283529160200191610e90565b820191906000526020600020905b815481529060010190602001808311610e7357829003601f168201915b505050505081565b60008073ffffffffffffffffffffffffffffffffffffffff168273ffffffffffffffffffffffffffffffffffffffff161415610f09576040517f08c379a0000000000000000000000000000000000000000000000000000000008152600401610f00906138cd565b60405180910390fd5b600360008373ffffffffffffffffffffffffffffffffffffffff1673ffffffffffffffffffffffffffffffffffffffff168152602001908152602001600020549050919050565b610f58611a5b565b73ffffffffffffffffffffffffffffffffffffffff16610f76611282565b73ffffffffffffffffffffffffffffffffffffffff1614610fcc576040517f08c379a0000000000000000000000000000000000000000000000000000000008152600401610fc39061396d565b60405180910390fd5b610fd66000611e56565b565b610fe0611a5b565b73ffffffffffffffffffffffffffffffffffffffff16610ffe611282565b73ffffffffffffffffffffffffffffffffffffffff1614611054576040517f08c379a000000000000000000000000000000000000000000000000000000000815260040161104b9061396d565b60405180910390fd5b6000811180156110665750600d548111155b6110a5576040517f08c379a000000000000000000000000000000000000000000000000000000000815260040161109c9061380d565b60405180910390fd5b60005b818110156110da5760006110ba6109ea565b90506110c68482611f1c565b5080806110d290613dad565b9150506110a8565b506110f081600d54611f3a90919063ffffffff16565b600d819055505050565b67016345785d8a000081565b6060600061111383610e98565b9050600081141561119657600067ffffffffffffffff81111561115f577f4e487b7100000000000000000000000000000000000000000000000000000000600052604160045260246000fd5b60405190808252806020026020018201604052801561118d5781602001602082028036833780820191505090505b5091505061127d565b60008167ffffffffffffffff8111156111d8577f4e487b7100000000000000000000000000000000000000000000000000000000600052604160045260246000fd5b6040519080825280602002602001820160405280156112065781602001602082028036833780820191505090505b50905060005b828110156112765761121e8582610a57565b828281518110611257577f4e487b7100000000000000000000000000000000000000000000000000000000600052603260045260246000fd5b602002602001018181525050808061126e90613dad565b91505061120c565b8193505050505b919050565b6000600660009054906101000a900473ffffffffffffffffffffffffffffffffffffffff16905090565b600c60009054906101000a900460ff166112fb576040517f08c379a00000000000000000000000000000000000000000000000000000000081526004016112f2906137ed565b60405180910390fd5b60008111801561130c575060058111155b61134b576040517f08c379a00000000000000000000000000000000000000000000000000000000081526004016113429061374d565b60405180910390fd5b6035611367826113596109ea565b611f5090919063ffffffff16565b11156113a8576040517f08c379a000000000000000000000000000000000000000000000000000000000815260040161139f9061390d565b60405180910390fd5b6113c38167016345785d8a0000611f6690919063ffffffff16565b341015611405576040517f08c379a00000000000000000000000000000000000000000000000000000000081526004016113fc9061386d565b60405180910390fd5b60005b8181101561149757600061142d600161141f6109ea565b611f5090919063ffffffff16565b905060356114396109ea565b1015611483576114493382611f1c565b7f4a1c47170b6dbe5d106a3efd38c0f7404694093d547893adb5ccfe18dcf9254c813360405161147a929190613a48565b60405180910390a15b50808061148f90613dad565b915050611408565b5050565b6060600180546114aa90613d4a565b80601f01602080910402602001604051908101604052809291908181526020018280546114d690613d4a565b80156115235780601f106114f857610100808354040283529160200191611523565b820191906000526020600020905b81548152906001019060200180831161150657829003601f168201915b5050505050905090565b61153f611538611a5b565b8383611f7c565b5050565b61154b611a5b565b73ffffffffffffffffffffffffffffffffffffffff16611569611282565b73ffffffffffffffffffffffffffffffffffffffff16146115bf576040517f08c379a00000000000000000000000000000000000000000000000000000000081526004016115b69061396d565b60405180910390fd5b6001600c60016101000a81548160ff021916908315150217905550565b6115ed6115e7611a5b565b83611b1c565b61162c576040517f08c379a0000000000000000000000000000000000000000000000000000000008152600401611623906139ed565b60405180910390fd5b611638848484846120e9565b50505050565b6060611649826119ef565b611688576040517f08c379a000000000000000000000000000000000000000000000000000000000815260040161167f906139ad565b60405180910390fd5b6000611692612145565b905060001515600c60019054906101000a900460ff16151514156116d1576040518060800160405280604181526020016145b26041913991505061171e565b60008151116116ef576040518060200160405280600081525061171a565b806116f9846121d7565b60405160200161170a929190613643565b6040516020818303038152906040525b9150505b919050565b61172b611a5b565b73ffffffffffffffffffffffffffffffffffffffff16611749611282565b73ffffffffffffffffffffffffffffffffffffffff161461179f576040517f08c379a00000000000000000000000000000000000000000000000000000000081526004016117969061396d565b60405180910390fd5b600c60009054906101000a900460ff1615600c60006101000a81548160ff021916908315150217905550565b6000600560008473ffffffffffffffffffffffffffffffffffffffff1673ffffffffffffffffffffffffffffffffffffffff16815260200190815260200160002060008373ffffffffffffffffffffffffffffffffffffffff1673ffffffffffffffffffffffffffffffffffffffff16815260200190815260200160002060009054906101000a900460ff16905092915050565b600c60009054906101000a900460ff1681565b61187a611a5b565b73ffffffffffffffffffffffffffffffffffffffff16611898611282565b73ffffffffffffffffffffffffffffffffffffffff16146118ee576040517f08c379a00000000000000000000000000000000000000000000000000000000081526004016118e59061396d565b60405180910390fd5b600073ffffffffffffffffffffffffffffffffffffffff168173ffffffffffffffffffffffffffffffffffffffff16141561195e576040517f08c379a0000000000000000000000000000000000000000000000000000000008152600401611955906137ad565b60405180910390fd5b61196781611e56565b50565b603581565b600d5481565b60007f780e9d63000000000000000000000000000000000000000000000000000000007bffffffffffffffffffffffffffffffffffffffffffffffffffffffff1916827bffffffffffffffffffffffffffffffffffffffffffffffffffffffff191614806119e857506119e782612384565b5b9050919050565b60008073ffffffffffffffffffffffffffffffffffffffff166002600084815260200190815260200160002060009054906101000a900473ffffffffffffffffffffffffffffffffffffffff1673ffffffffffffffffffffffffffffffffffffffff1614159050919050565b600033905090565b816004600083815260200190815260200160002060006101000a81548173ffffffffffffffffffffffffffffffffffffffff021916908373ffffffffffffffffffffffffffffffffffffffff160217905550808273ffffffffffffffffffffffffffffffffffffffff16611ad683610d58565b73ffffffffffffffffffffffffffffffffffffffff167f8c5be1e5ebec7d5bd14f71427d1e84f3dd0314c0f7b2291e5b200ac8c7c3b92560405160405180910390a45050565b6000611b27826119ef565b611b66576040517f08c379a0000000000000000000000000000000000000000000000000000000008152600401611b5d9061388d565b60405180910390fd5b6000611b7183610d58565b90508073ffffffffffffffffffffffffffffffffffffffff168473ffffffffffffffffffffffffffffffffffffffff161480611be057508373ffffffffffffffffffffffffffffffffffffffff16611bc884610848565b73ffffffffffffffffffffffffffffffffffffffff16145b80611bf15750611bf081856117cb565b5b91505092915050565b8273ffffffffffffffffffffffffffffffffffffffff16611c1a82610d58565b73ffffffffffffffffffffffffffffffffffffffff1614611c70576040517f08c379a0000000000000000000000000000000000000000000000000000000008152600401611c679061398d565b60405180910390fd5b600073ffffffffffffffffffffffffffffffffffffffff168273ffffffffffffffffffffffffffffffffffffffff161415611ce0576040517f08c379a0000000000000000000000000000000000000000000000000000000008152600401611cd79061382d565b60405180910390fd5b611ceb838383612466565b611cf6600082611a63565b6001600360008573ffffffffffffffffffffffffffffffffffffffff1673ffffffffffffffffffffffffffffffffffffffff1681526020019081526020016000206000828254611d469190613c60565b925050819055506001600360008473ffffffffffffffffffffffffffffffffffffffff1673ffffffffffffffffffffffffffffffffffffffff1681526020019081526020016000206000828254611d9d9190613b7f565b92505081905550816002600083815260200190815260200160002060006101000a81548173ffffffffffffffffffffffffffffffffffffffff021916908373ffffffffffffffffffffffffffffffffffffffff160217905550808273ffffffffffffffffffffffffffffffffffffffff168473ffffffffffffffffffffffffffffffffffffffff167fddf252ad1be2c89b69c2b068fc378daa952ba7f163c4a11628f55a4df523b3ef60405160405180910390a4505050565b6000600660009054906101000a900473ffffffffffffffffffffffffffffffffffffffff16905081600660006101000a81548173ffffffffffffffffffffffffffffffffffffffff021916908373ffffffffffffffffffffffffffffffffffffffff1602179055508173ffffffffffffffffffffffffffffffffffffffff168173ffffffffffffffffffffffffffffffffffffffff167f8be0079c531659141344cd1fd0a4f28419497f9722a3daafe3b4186f6b6457e060405160405180910390a35050565b611f36828260405180602001604052806000815250612476565b5050565b60008183611f489190613c60565b905092915050565b60008183611f5e9190613b7f565b905092915050565b60008183611f749190613c06565b905092915050565b8173ffffffffffffffffffffffffffffffffffffffff168373ffffffffffffffffffffffffffffffffffffffff161415611feb576040517f08c379a0000000000000000000000000000000000000000000000000000000008152600401611fe29061384d565b60405180910390fd5b80600560008573ffffffffffffffffffffffffffffffffffffffff1673ffffffffffffffffffffffffffffffffffffffff16815260200190815260200160002060008473ffffffffffffffffffffffffffffffffffffffff1673ffffffffffffffffffffffffffffffffffffffff16815260200190815260200160002060006101000a81548160ff0219169083151502179055508173ffffffffffffffffffffffffffffffffffffffff168373ffffffffffffffffffffffffffffffffffffffff167f17307eab39ab6107e8899845ad3d59bd9653f200f220920489ca2b5937696c31836040516120dc9190613710565b60405180910390a3505050565b6120f4848484611bfa565b612100848484846124d1565b61213f576040517f08c379a00000000000000000000000000000000000000000000000000000000081526004016121369061378d565b60405180910390fd5b50505050565b6060600b805461215490613d4a565b80601f016020809104026020016040519081016040528092919081815260200182805461218090613d4a565b80156121cd5780601f106121a2576101008083540402835291602001916121cd565b820191906000526020600020905b8154815290600101906020018083116121b057829003601f168201915b5050505050905090565b6060600082141561221f576040518060400160405280600181526020017f3000000000000000000000000000000000000000000000000000000000000000815250905061237f565b600082905060005b6000821461225157808061223a90613dad565b915050600a8261224a9190613bd5565b9150612227565b60008167ffffffffffffffff811115612293577f4e487b7100000000000000000000000000000000000000000000000000000000600052604160045260246000fd5b6040519080825280601f01601f1916602001820160405280156122c55781602001600182028036833780820191505090505b5090505b60008514612378576001826122de9190613c60565b9150600a856122ed9190613df6565b60306122f99190613b7f565b60f81b818381518110612335577f4e487b7100000000000000000000000000000000000000000000000000000000600052603260045260246000fd5b60200101907effffffffffffffffffffffffffffffffffffffffffffffffffffffffffffff1916908160001a905350600a856123719190613bd5565b94506122c9565b8093505050505b919050565b60007f80ac58cd000000000000000000000000000000000000000000000000000000007bffffffffffffffffffffffffffffffffffffffffffffffffffffffff1916827bffffffffffffffffffffffffffffffffffffffffffffffffffffffff1916148061244f57507f5b5e139f000000000000000000000000000000000000000000000000000000007bffffffffffffffffffffffffffffffffffffffffffffffffffffffff1916827bffffffffffffffffffffffffffffffffffffffffffffffffffffffff1916145b8061245f575061245e82612668565b5b9050919050565b6124718383836126d2565b505050565b61248083836127e6565b61248d60008484846124d1565b6124cc576040517f08c379a00000000000000000000000000000000000000000000000000000000081526004016124c39061378d565b60405180910390fd5b505050565b60006124f28473ffffffffffffffffffffffffffffffffffffffff166129b4565b1561265b578373ffffffffffffffffffffffffffffffffffffffff1663150b7a0261251b611a5b565b8786866040518563ffffffff1660e01b815260040161253d94939291906136a2565b602060405180830381600087803b15801561255757600080fd5b505af192505050801561258857506040513d601f19601f8201168201806040525081019061258591906130f0565b60015b61260b573d80600081146125b8576040519150601f19603f3d011682016040523d82523d6000602084013e6125bd565b606091505b50600081511415612603576040517f08c379a00000000000000000000000000000000000000000000000000000000081526004016125fa9061378d565b60405180910390fd5b805181602001fd5b63150b7a0260e01b7bffffffffffffffffffffffffffffffffffffffffffffffffffffffff1916817bffffffffffffffffffffffffffffffffffffffffffffffffffffffff191614915050612660565b600190505b949350505050565b60007f01ffc9a7000000000000000000000000000000000000000000000000000000007bffffffffffffffffffffffffffffffffffffffffffffffffffffffff1916827bffffffffffffffffffffffffffffffffffffffffffffffffffffffff1916149050919050565b6126dd8383836129c7565b600073ffffffffffffffffffffffffffffffffffffffff168373ffffffffffffffffffffffffffffffffffffffff1614156127205761271b816129cc565b61275f565b8173ffffffffffffffffffffffffffffffffffffffff168373ffffffffffffffffffffffffffffffffffffffff161461275e5761275d8382612a15565b5b5b600073ffffffffffffffffffffffffffffffffffffffff168273ffffffffffffffffffffffffffffffffffffffff1614156127a25761279d81612b82565b6127e1565b8273ffffffffffffffffffffffffffffffffffffffff168273ffffffffffffffffffffffffffffffffffffffff16146127e0576127df8282612cc5565b5b5b505050565b600073ffffffffffffffffffffffffffffffffffffffff168273ffffffffffffffffffffffffffffffffffffffff161415612856576040517f08c379a000000000000000000000000000000000000000000000000000000000815260040161284d9061392d565b60405180910390fd5b61285f816119ef565b1561289f576040517f08c379a0000000000000000000000000000000000000000000000000000000008152600401612896906137cd565b60405180910390fd5b6128ab60008383612466565b6001600360008473ffffffffffffffffffffffffffffffffffffffff1673ffffffffffffffffffffffffffffffffffffffff16815260200190815260200160002060008282546128fb9190613b7f565b92505081905550816002600083815260200190815260200160002060006101000a81548173ffffffffffffffffffffffffffffffffffffffff021916908373ffffffffffffffffffffffffffffffffffffffff160217905550808273ffffffffffffffffffffffffffffffffffffffff16600073ffffffffffffffffffffffffffffffffffffffff167fddf252ad1be2c89b69c2b068fc378daa952ba7f163c4a11628f55a4df523b3ef60405160405180910390a45050565b600080823b905060008111915050919050565b505050565b600980549050600a600083815260200190815260200160002081905550600981908060018154018082558091505060019003906000526020600020016000909190919091505550565b60006001612a2284610e98565b612a2c9190613c60565b9050600060086000848152602001908152602001600020549050818114612b11576000600760008673ffffffffffffffffffffffffffffffffffffffff1673ffffffffffffffffffffffffffffffffffffffff168152602001908152602001600020600084815260200190815260200160002054905080600760008773ffffffffffffffffffffffffffffffffffffffff1673ffffffffffffffffffffffffffffffffffffffff168152602001908152602001600020600084815260200190815260200160002081905550816008600083815260200190815260200160002081905550505b6008600084815260200190815260200160002060009055600760008573ffffffffffffffffffffffffffffffffffffffff1673ffffffffffffffffffffffffffffffffffffffff16815260200190815260200160002060008381526020019081526020016000206000905550505050565b60006001600980549050612b969190613c60565b90506000600a6000848152602001908152602001600020549050600060098381548110612bec577f4e487b7100000000000000000000000000000000000000000000000000000000600052603260045260246000fd5b906000526020600020015490508060098381548110612c34577f4e487b7100000000000000000000000000000000000000000000000000000000600052603260045260246000fd5b906000526020600020018190555081600a600083815260200190815260200160002081905550600a6000858152602001908152602001600020600090556009805480612ca9577f4e487b7100000000000000000000000000000000000000000000000000000000600052603160045260246000fd5b6001900381819060005260206000200160009055905550505050565b6000612cd083610e98565b905081600760008573ffffffffffffffffffffffffffffffffffffffff1673ffffffffffffffffffffffffffffffffffffffff168152602001908152602001600020600083815260200190815260200160002081905550806008600084815260200190815260200160002081905550505050565b828054612d5090613d4a565b90600052602060002090601f016020900481019282612d725760008555612db9565b82601f10612d8b57805160ff1916838001178555612db9565b82800160010185558215612db9579182015b82811115612db8578251825591602001919060010190612d9d565b5b509050612dc69190612dca565b5090565b5b80821115612de3576000816000905550600101612dcb565b5090565b6000612dfa612df584613a96565b613a71565b905082815260208101848484011115612e1257600080fd5b612e1d848285613d08565b509392505050565b6000612e38612e3384613ac7565b613a71565b905082815260208101848484011115612e5057600080fd5b612e5b848285613d08565b509392505050565b600081359050612e7281614555565b92915050565b600081359050612e878161456c565b92915050565b600081359050612e9c81614583565b92915050565b600081519050612eb181614583565b92915050565b600082601f830112612ec857600080fd5b8135612ed8848260208601612de7565b91505092915050565b600082601f830112612ef257600080fd5b8135612f02848260208601612e25565b91505092915050565b600081359050612f1a8161459a565b92915050565b600060208284031215612f3257600080fd5b6000612f4084828501612e63565b91505092915050565b60008060408385031215612f5c57600080fd5b6000612f6a85828601612e63565b9250506020612f7b85828601612e63565b9150509250929050565b600080600060608486031215612f9a57600080fd5b6000612fa886828701612e63565b9350506020612fb986828701612e63565b9250506040612fca86828701612f0b565b9150509250925092565b60008060008060808587031215612fea57600080fd5b6000612ff887828801612e63565b945050602061300987828801612e63565b935050604061301a87828801612f0b565b925050606085013567ffffffffffffffff81111561303757600080fd5b61304387828801612eb7565b91505092959194509250565b6000806040838503121561306257600080fd5b600061307085828601612e63565b925050602061308185828601612e78565b9150509250929050565b6000806040838503121561309e57600080fd5b60006130ac85828601612e63565b92505060206130bd85828601612f0b565b9150509250929050565b6000602082840312156130d957600080fd5b60006130e784828501612e8d565b91505092915050565b60006020828403121561310257600080fd5b600061311084828501612ea2565b91505092915050565b60006020828403121561312b57600080fd5b600082013567ffffffffffffffff81111561314557600080fd5b61315184828501612ee1565b91505092915050565b60006020828403121561316c57600080fd5b600061317a84828501612f0b565b91505092915050565b600061318f8383613625565b60208301905092915050565b6131a481613c94565b82525050565b60006131b582613b08565b6131bf8185613b36565b93506131ca83613af8565b8060005b838110156131fb5781516131e28882613183565b97506131ed83613b29565b9250506001810190506131ce565b5085935050505092915050565b61321181613ca6565b82525050565b600061322282613b13565b61322c8185613b47565b935061323c818560208601613d17565b61324581613ee3565b840191505092915050565b600061325b82613b1e565b6132658185613b63565b9350613275818560208601613d17565b61327e81613ee3565b840191505092915050565b600061329482613b1e565b61329e8185613b74565b93506132ae818560208601613d17565b80840191505092915050565b60006132c7602a83613b63565b91506132d282613ef4565b604082019050919050565b60006132ea602b83613b63565b91506132f582613f43565b604082019050919050565b600061330d603283613b63565b915061331882613f92565b604082019050919050565b6000613330602683613b63565b915061333b82613fe1565b604082019050919050565b6000613353601c83613b63565b915061335e82614030565b602082019050919050565b6000613376602183613b63565b915061338182614059565b604082019050919050565b6000613399602083613b63565b91506133a4826140a8565b602082019050919050565b60006133bc602483613b63565b91506133c7826140d1565b604082019050919050565b60006133df601983613b63565b91506133ea82614120565b602082019050919050565b6000613402601f83613b63565b915061340d82614149565b602082019050919050565b6000613425602c83613b63565b915061343082614172565b604082019050919050565b6000613448603883613b63565b9150613453826141c1565b604082019050919050565b600061346b602a83613b63565b915061347682614210565b604082019050919050565b600061348e602983613b63565b91506134998261425f565b604082019050919050565b60006134b1602a83613b63565b91506134bc826142ae565b604082019050919050565b60006134d4602083613b63565b91506134df826142fd565b602082019050919050565b60006134f7602c83613b63565b915061350282614326565b604082019050919050565b600061351a600583613b74565b915061352582614375565b600582019050919050565b600061353d602083613b63565b91506135488261439e565b602082019050919050565b6000613560602983613b63565b915061356b826143c7565b604082019050919050565b6000613583602f83613b63565b915061358e82614416565b604082019050919050565b60006135a6602183613b63565b91506135b182614465565b604082019050919050565b60006135c9600083613b58565b91506135d4826144b4565b600082019050919050565b60006135ec603183613b63565b91506135f7826144b7565b604082019050919050565b600061360f602c83613b63565b915061361a82614506565b604082019050919050565b61362e81613cfe565b82525050565b61363d81613cfe565b82525050565b600061364f8285613289565b915061365b8284613289565b91506136668261350d565b91508190509392505050565b600061367d826135bc565b9150819050919050565b600060208201905061369c600083018461319b565b92915050565b60006080820190506136b7600083018761319b565b6136c4602083018661319b565b6136d16040830185613634565b81810360608301526136e38184613217565b905095945050505050565b6000602082019050818103600083015261370881846131aa565b905092915050565b60006020820190506137256000830184613208565b92915050565b600060208201905081810360008301526137458184613250565b905092915050565b60006020820190508181036000830152613766816132ba565b9050919050565b60006020820190508181036000830152613786816132dd565b9050919050565b600060208201905081810360008301526137a681613300565b9050919050565b600060208201905081810360008301526137c681613323565b9050919050565b600060208201905081810360008301526137e681613346565b9050919050565b6000602082019050818103600083015261380681613369565b9050919050565b600060208201905081810360008301526138268161338c565b9050919050565b60006020820190508181036000830152613846816133af565b9050919050565b60006020820190508181036000830152613866816133d2565b9050919050565b60006020820190508181036000830152613886816133f5565b9050919050565b600060208201905081810360008301526138a681613418565b9050919050565b600060208201905081810360008301526138c68161343b565b9050919050565b600060208201905081810360008301526138e68161345e565b9050919050565b6000602082019050818103600083015261390681613481565b9050919050565b60006020820190508181036000830152613926816134a4565b9050919050565b60006020820190508181036000830152613946816134c7565b9050919050565b60006020820190508181036000830152613966816134ea565b9050919050565b6000602082019050818103600083015261398681613530565b9050919050565b600060208201905081810360008301526139a681613553565b9050919050565b600060208201905081810360008301526139c681613576565b9050919050565b600060208201905081810360008301526139e681613599565b9050919050565b60006020820190508181036000830152613a06816135df565b9050919050565b60006020820190508181036000830152613a2681613602565b9050919050565b6000602082019050613a426000830184613634565b92915050565b6000604082019050613a5d6000830185613634565b613a6a602083018461319b565b9392505050565b6000613a7b613a8c565b9050613a878282613d7c565b919050565b6000604051905090565b600067ffffffffffffffff821115613ab157613ab0613eb4565b5b613aba82613ee3565b9050602081019050919050565b600067ffffffffffffffff821115613ae257613ae1613eb4565b5b613aeb82613ee3565b9050602081019050919050565b6000819050602082019050919050565b600081519050919050565b600081519050919050565b600081519050919050565b6000602082019050919050565b600082825260208201905092915050565b600082825260208201905092915050565b600081905092915050565b600082825260208201905092915050565b600081905092915050565b6000613b8a82613cfe565b9150613b9583613cfe565b9250827fffffffffffffffffffffffffffffffffffffffffffffffffffffffffffffffff03821115613bca57613bc9613e27565b5b828201905092915050565b6000613be082613cfe565b9150613beb83613cfe565b925082613bfb57613bfa613e56565b5b828204905092915050565b6000613c1182613cfe565b9150613c1c83613cfe565b9250817fffffffffffffffffffffffffffffffffffffffffffffffffffffffffffffffff0483118215151615613c5557613c54613e27565b5b828202905092915050565b6000613c6b82613cfe565b9150613c7683613cfe565b925082821015613c8957613c88613e27565b5b828203905092915050565b6000613c9f82613cde565b9050919050565b60008115159050919050565b60007fffffffff0000000000000000000000000000000000000000000000000000000082169050919050565b600073ffffffffffffffffffffffffffffffffffffffff82169050919050565b6000819050919050565b82818337600083830152505050565b60005b83811015613d35578082015181840152602081019050613d1a565b83811115613d44576000848401525b50505050565b60006002820490506001821680613d6257607f821691505b60208210811415613d7657613d75613e85565b5b50919050565b613d8582613ee3565b810181811067ffffffffffffffff82111715613da457613da3613eb4565b5b80604052505050565b6000613db882613cfe565b91507fffffffffffffffffffffffffffffffffffffffffffffffffffffffffffffffff821415613deb57613dea613e27565b5b600182019050919050565b6000613e0182613cfe565b9150613e0c83613cfe565b925082613e1c57613e1b613e56565b5b828206905092915050565b7f4e487b7100000000000000000000000000000000000000000000000000000000600052601160045260246000fd5b7f4e487b7100000000000000000000000000000000000000000000000000000000600052601260045260246000fd5b7f4e487b7100000000000000000000000000000000000000000000000000000000600052602260045260246000fd5b7f4e487b7100000000000000000000000000000000000000000000000000000000600052604160045260246000fd5b6000601f19601f8301169050919050565b7f43616e206f6e6c79206d696e74206f6e65206f72206d6f726520746f6b656e7360008201527f20617420612074696d6500000000000000000000000000000000000000000000602082015250565b7f455243373231456e756d657261626c653a206f776e657220696e646578206f7560008201527f74206f6620626f756e6473000000000000000000000000000000000000000000602082015250565b7f4552433732313a207472616e7366657220746f206e6f6e20455243373231526560008201527f63656976657220696d706c656d656e7465720000000000000000000000000000602082015250565b7f4f776e61626c653a206e6577206f776e657220697320746865207a65726f206160008201527f6464726573730000000000000000000000000000000000000000000000000000602082015250565b7f4552433732313a20746f6b656e20616c7265616479206d696e74656400000000600082015250565b7f53616c65206d7573742062652061637469766520746f206d696e7420546f6b6560008201527f6e00000000000000000000000000000000000000000000000000000000000000602082015250565b7f4e6f7420656e6f7567682072657365727665206c65667420666f72207465616d600082015250565b7f4552433732313a207472616e7366657220746f20746865207a65726f2061646460008201527f7265737300000000000000000000000000000000000000000000000000000000602082015250565b7f4552433732313a20617070726f766520746f2063616c6c657200000000000000600082015250565b7f45746865722076616c75652073656e74206973206e6f7420636f727265637400600082015250565b7f4552433732313a206f70657261746f7220717565727920666f72206e6f6e657860008201527f697374656e7420746f6b656e0000000000000000000000000000000000000000602082015250565b7f4552433732313a20617070726f76652063616c6c6572206973206e6f74206f7760008201527f6e6572206e6f7220617070726f76656420666f7220616c6c0000000000000000602082015250565b7f4552433732313a2062616c616e636520717565727920666f7220746865207a6560008201527f726f206164647265737300000000000000000000000000000000000000000000602082015250565b7f4552433732313a206f776e657220717565727920666f72206e6f6e657869737460008201527f656e7420746f6b656e0000000000000000000000000000000000000000000000602082015250565b7f507572636861736520776f756c6420657863656564206d617820737570706c7960008201527f206f6620746f6b656e7300000000000000000000000000000000000000000000602082015250565b7f4552433732313a206d696e7420746f20746865207a65726f2061646472657373600082015250565b7f4552433732313a20617070726f76656420717565727920666f72206e6f6e657860008201527f697374656e7420746f6b656e0000000000000000000000000000000000000000602082015250565b7f2e6a736f6e000000000000000000000000000000000000000000000000000000600082015250565b7f4f776e61626c653a2063616c6c6572206973206e6f7420746865206f776e6572600082015250565b7f4552433732313a207472616e73666572206f6620746f6b656e2074686174206960008201527f73206e6f74206f776e0000000000000000000000000000000000000000000000602082015250565b7f4552433732314d657461646174613a2055524920717565727920666f72206e6f60008201527f6e6578697374656e7420746f6b656e0000000000000000000000000000000000602082015250565b7f4552433732313a20617070726f76616c20746f2063757272656e74206f776e6560008201527f7200000000000000000000000000000000000000000000000000000000000000602082015250565b50565b7f4552433732313a207472616e736665722063616c6c6572206973206e6f74206f60008201527f776e6572206e6f7220617070726f766564000000000000000000000000000000602082015250565b7f455243373231456e756d657261626c653a20676c6f62616c20696e646578206f60008201527f7574206f6620626f756e64730000000000000000000000000000000000000000602082015250565b61455e81613c94565b811461456957600080fd5b50565b61457581613ca6565b811461458057600080fd5b50565b61458c81613cb2565b811461459757600080fd5b50565b6145a381613cfe565b81146145ae57600080fd5b5056fe697066733a2f2f516d5963426f5855616b67795538673454754568334a3575615a56623258594d6e504650677170664c754d6b35722f68696464656e2e6a736f6ea26469706673582212200656453fdf426ceba901f871ebd03aa83f563a5bf3b0b431088bfe09760a6e7264736f6c6343000804003368747470733a2f2f697066732e696f2f697066732f516d534c31795642674b79626f4a687859447948614e506370326571626e3250755258666946367738654d64396d2f",
  "linkReferences": {},
  "deployedLinkReferences": {}
}